{
  "contractName": "MedChain",
  "abi": [
    {
      "inputs": [],
      "payable": false,
      "stateMutability": "nonpayable",
      "type": "constructor"
    },
    {
      "constant": true,
      "inputs": [],
      "name": "recordCount",
      "outputs": [
        {
          "internalType": "uint256",
          "name": "",
          "type": "uint256"
        }
      ],
      "payable": false,
      "stateMutability": "view",
      "type": "function"
    },
    {
      "constant": true,
      "inputs": [
        {
          "internalType": "uint256",
          "name": "",
          "type": "uint256"
        }
      ],
      "name": "records",
      "outputs": [
        {
          "internalType": "uint256",
          "name": "id",
          "type": "uint256"
        },
        {
          "internalType": "string",
          "name": "doctorId",
          "type": "string"
        },
        {
          "internalType": "string",
          "name": "patientId",
          "type": "string"
        },
        {
          "internalType": "string",
          "name": "ipfsHash",
          "type": "string"
        }
      ],
      "payable": false,
      "stateMutability": "view",
      "type": "function"
    },
    {
      "constant": false,
      "inputs": [
        {
          "internalType": "string",
          "name": "_doctorId",
          "type": "string"
        },
        {
          "internalType": "string",
          "name": "_patientId",
          "type": "string"
        },
        {
          "internalType": "string",
          "name": "_ipfsHash",
          "type": "string"
        }
      ],
      "name": "createRecord",
      "outputs": [],
      "payable": false,
      "stateMutability": "nonpayable",
      "type": "function"
    },
    {
      "constant": true,
      "inputs": [
        {
          "internalType": "string",
          "name": "a",
          "type": "string"
        },
        {
          "internalType": "string",
          "name": "b",
          "type": "string"
        }
      ],
      "name": "compareStrings",
      "outputs": [
        {
          "internalType": "bool",
          "name": "",
          "type": "bool"
        }
      ],
      "payable": false,
      "stateMutability": "view",
      "type": "function"
    },
    {
      "constant": true,
      "inputs": [
        {
          "internalType": "uint256",
          "name": "n",
          "type": "uint256"
        },
        {
          "internalType": "string",
          "name": "_doctorId",
          "type": "string"
        }
      ],
      "name": "getDoctor",
      "outputs": [
        {
          "internalType": "string[]",
          "name": "",
          "type": "string[]"
        }
      ],
      "payable": false,
      "stateMutability": "view",
      "type": "function"
    },
    {
      "constant": true,
      "inputs": [
        {
          "internalType": "uint256",
          "name": "n",
          "type": "uint256"
        },
        {
          "internalType": "string",
          "name": "_patientId",
          "type": "string"
        }
      ],
      "name": "getPatient",
      "outputs": [
        {
          "internalType": "string[]",
          "name": "",
          "type": "string[]"
        }
      ],
      "payable": false,
      "stateMutability": "view",
      "type": "function"
    }
  ],
  "bytecode": "0x60806040526000805534801561001457600080fd5b5061008160405180604001604052806005815260200164313233343560d81b8152506040518060400160405280600681526020016532333435363760d01b815250604051806040016040528060088152602001670c2c4c6c8caccced60c31b81525061008660201b60201c565b6101b5565b6000805460019081018083556040805160808101825282815260208082018981528284018990526060830188905293865284815291909420845181559151805192936100da9390850192919091019061011a565b50604082015180516100f691600284019160209091019061011a565b506060820151805161011291600384019160209091019061011a565b505050505050565b828054600181600116156101000203166002900490600052602060002090601f016020900481019282601f1061015b57805160ff1916838001178555610188565b82800160010185558215610188579182015b8281111561018857825182559160200191906001019061016d565b50610194929150610198565b5090565b6101b291905b80821115610194576000815560010161019e565b90565b610c0780620001c56000396000f3fe608060405234801561001057600080fd5b50600436106100625760003560e01c806334461067146100675780633892042214610093578063900407bc146100b3578063bed34bba146100c8578063c150d899146100e8578063facff5d2146100fb575b600080fd5b61007a61007536600461092b565b610110565b60405161008a9493929190610aa9565b60405180910390f35b6100a66100a1366004610951565b6102d8565b60405161008a9190610a7c565b6100bb6104b8565b60405161008a9190610a9b565b6100db6100d636600461082e565b6104be565b60405161008a9190610a8d565b6100a66100f6366004610951565b610517565b61010e610109366004610897565b6106a0565b005b600160208181526000928352604092839020805481840180548651600296821615610100026000190190911695909504601f810185900485028601850190965285855290949193929091908301828280156101ac5780601f10610181576101008083540402835291602001916101ac565b820191906000526020600020905b81548152906001019060200180831161018f57829003601f168201915b50505060028085018054604080516020601f600019610100600187161502019094169590950492830185900485028101850190915281815295969594509092509083018282801561023e5780601f106102135761010080835404028352916020019161023e565b820191906000526020600020905b81548152906001019060200180831161022157829003601f168201915b5050505060038301805460408051602060026001851615610100026000190190941693909304601f81018490048402820184019092528181529495949350908301828280156102ce5780601f106102a3576101008083540402835291602001916102ce565b820191906000526020600020905b8154815290600101906020018083116102b157829003601f168201915b5050505050905084565b60606000806000905060608560405190808252806020026020018201604052801561031757816020015b60608152602001906001900390816103025790505b509050600192505b60005483116104ad576103e0600160008581526020019081526020016000206002018054600181600116156101000203166002900480601f0160208091040260200160405190810160405280929190818152602001828054600181600116156101000203166002900480156103d55780601f106103aa576101008083540402835291602001916103d5565b820191906000526020600020905b8154815290600101906020018083116103b857829003601f168201915b5050505050866104be565b1515600114156104a25760008381526001602081815260409283902060030180548451600294821615610100026000190190911693909304601f810183900483028401830190945283835291929083018282801561047f5780601f106104545761010080835404028352916020019161047f565b820191906000526020600020905b81548152906001019060200180831161046257829003601f168201915b505050505081838151811061049057fe5b60209081029190910101526001909101905b60019092019161031f565b925050505b92915050565b60005481565b6000816040516020016104d19190610a70565b60405160208183030381529060405280519060200120836040516020016104f89190610a70565b6040516020818303038152906040528051906020012014905092915050565b60606000806000905060608560405190808252806020026020018201604052801561055657816020015b60608152602001906001900390816105415790505b509050600192505b60005483116104ad57600083815260016020818152604092839020820180548451600294821615610100026000190190911693909304601f81018390048302840183019094528383526105d39390918301828280156103d55780601f106103aa576101008083540402835291602001916103d5565b1515600114156106955760008381526001602081815260409283902060030180548451600294821615610100026000190190911693909304601f81018390048302840183019094528383529192908301828280156106725780601f1061064757610100808354040283529160200191610672565b820191906000526020600020905b81548152906001019060200180831161065557829003601f168201915b505050505081838151811061068357fe5b60209081029190910101526001909101905b60019092019161055e565b6000805460019081018083556040805160808101825282815260208082018981528284018990526060830188905293865284815291909420845181559151805192936106f493908501929190910190610734565b5060408201518051610710916002840191602090910190610734565b506060820151805161072c916003840191602090910190610734565b505050505050565b828054600181600116156101000203166002900490600052602060002090601f016020900481019282601f1061077557805160ff19168380011785556107a2565b828001600101855582156107a2579182015b828111156107a2578251825591602001919060010190610787565b506107ae9291506107b2565b5090565b6107cc91905b808211156107ae57600081556001016107b8565b90565b600082601f8301126107e057600080fd5b81356107f36107ee82610b22565b610afb565b9150808252602083016020830185838301111561080f57600080fd5b61081a838284610b67565b50505092915050565b80356104b281610bad565b6000806040838503121561084157600080fd5b823567ffffffffffffffff81111561085857600080fd5b610864858286016107cf565b925050602083013567ffffffffffffffff81111561088157600080fd5b61088d858286016107cf565b9150509250929050565b6000806000606084860312156108ac57600080fd5b833567ffffffffffffffff8111156108c357600080fd5b6108cf868287016107cf565b935050602084013567ffffffffffffffff8111156108ec57600080fd5b6108f8868287016107cf565b925050604084013567ffffffffffffffff81111561091557600080fd5b610921868287016107cf565b9150509250925092565b60006020828403121561093d57600080fd5b60006109498484610823565b949350505050565b6000806040838503121561096457600080fd5b60006108648585610823565b600061097c8383610a2f565b9392505050565b600061098e82610b50565b6109988185610b54565b9350836020820285016109aa85610b4a565b8060005b858110156109e457848403895281516109c78582610970565b94506109d283610b4a565b60209a909a01999250506001016109ae565b5091979650505050505050565b6109fa81610b62565b82525050565b6000610a0b82610b50565b610a158185610b5d565b9350610a25818560208601610b73565b9290920192915050565b6000610a3a82610b50565b610a448185610b54565b9350610a54818560208601610b73565b610a5d81610ba3565b9093019392505050565b6109fa816107cc565b600061097c8284610a00565b6020808252810161097c8184610983565b602081016104b282846109f1565b602081016104b28284610a67565b60808101610ab78287610a67565b8181036020830152610ac98186610a2f565b90508181036040830152610add8185610a2f565b90508181036060830152610af18184610a2f565b9695505050505050565b60405181810167ffffffffffffffff81118282101715610b1a57600080fd5b604052919050565b600067ffffffffffffffff821115610b3957600080fd5b506020601f91909101601f19160190565b60200190565b5190565b90815260200190565b919050565b151590565b82818337506000910152565b60005b83811015610b8e578181015183820152602001610b76565b83811115610b9d576000848401525b50505050565b601f01601f191690565b610bb6816107cc565b8114610bc157600080fd5b5056fea365627a7a7231582027ae3c1861ba953796a1f922891ad766304adbe13463021f741c72219674586d6c6578706572696d656e74616cf564736f6c63430005100040",
  "source": "pragma solidity ^0.5.0;\r\npragma experimental ABIEncoderV2;\r\ncontract MedChain {\r\n    uint public recordCount = 0;\r\n\r\n    struct Record {\r\n        uint id;\r\n        string doctorId;\r\n        string patientId;\r\n        string ipfsHash;\r\n    }\r\n\r\n    constructor() public {\r\n        createRecord('12345', '234567', 'abcdefgh');\r\n    }\r\n    \r\n    mapping(uint => Record) public records;\r\n\r\n    function createRecord(string memory _doctorId, string memory _patientId, string memory _ipfsHash) public {\r\n        recordCount++;\r\n        records[recordCount] = Record(recordCount, _doctorId, _patientId, _ipfsHash);\r\n    }\r\n\r\n    function compareStrings(string memory a, string memory b) public view returns (bool) {\r\n    return (keccak256(abi.encodePacked((a))) == keccak256(abi.encodePacked((b))));\r\n    }\r\n\r\n    function getDoctor(uint n, string memory _doctorId) public view returns (string[] memory) {\r\n        uint i;\r\n        uint j = 0;\r\n        string[] memory array = new string[](n);\r\n        for (i = 1; i <= recordCount; i++) {\r\n            if(compareStrings(records[i].doctorId, _doctorId) == true)\r\n            {\r\n                array[j] = records[i].ipfsHash;\r\n                j++;\r\n            }\r\n        }\r\n        return array;\r\n    } \r\n\r\n    function getPatient(uint n, string memory _patientId) public view returns (string[] memory) {\r\n        uint i;\r\n        uint j = 0;\r\n        string[] memory array = new string[](n);\r\n        for (i = 1; i <= recordCount; i++) {\r\n            if(compareStrings(records[i].patientId, _patientId) == true)\r\n            {\r\n                array[j] = records[i].ipfsHash;\r\n                j++;\r\n            }\r\n        }\r\n        return array;\r\n    } \r\n}",
  "sourcePath": "C:\\Users\\DELL\\Desktop\\Hackathon\\contracts\\MedChain.sol",
  "compiler": {
    "name": "solc",
    "version": "0.5.16+commit.9c3226ce.Emscripten.clang"
  },
  "schemaVersion": "3.4.3",
  "updatedAt": "2022-05-11T21:19:57.925Z",
  "networkType": "ethereum",
  "devdoc": {
    "methods": {}
  },
  "userdoc": {
    "methods": {}
  }
}